8=FIX.4.4|9=0000120|35=A|49=MD_D103289979_client1|56=FXCM|34=1|57=U100D1|52=20190531-11:30:54.595|98=0|108=30|141=Y|553=D103289979|554=5020|10=020|
8=FIX.4.4|9=96|35=A|34=1|49=FXCM|50=U100D1|52=20190531-11:30:55.727|56=MD_D103289979_client1|98=0|108=30|141=Y|10=133|
8=FIX.4.4|9=0000143|35=V|49=MD_D103289979_client1|56=FXCM|34=2|57=U100D1|52=20190531-11:30:55.869|262=nBroker|263=1|264=0|265=1|267=2|269=0|269=1|146=1|55=EUR/USD|10=254|
8=FIX.4.4|9=514|35=W|34=2|49=FXCM|50=U100D1|52=20190531-11:30:55.998|56=MD_D103289979_client1|55=EUR/USD|228=1|231=1|262=nBroker|460=4|9001=5|9002=0.0001|9005=100|9011=0|9020=2|9080=1|9090=0|9091=0|9092=0|9093=0|9094=50000000|9095=1|9096=O|268=4|269=0|270=1.11476|271=0|272=20190531|273=11:30:55.000|336=FXCM|625=U100D1|276=A|282=PSFX_DESK|299=FXCM-EURUSD-8473428|537=1|269=1|270=1.11488|271=0|272=20190531|273=11:30:55.000|336=FXCM|625=U100D1|276=A|282=PSFX_DESK|299=FXCM-EURUSD-8473428|537=1|269=7|270=1.11471|269=8|270=1.11480|10=032|
8=FIX.4.4|9=0000112|35=5|49=MD_D103289979_client1|56=FXCM|34=3|57=U100D1|52=20190531-11:33:23.796|58=fxcm_md_client initiate logout|10=189|
8=FIX.4.4|9=0000120|35=A|49=MD_D103289979_client1|56=FXCM|34=1|57=U100D1|52=20190531-11:33:24.055|98=0|108=30|141=Y|553=D103289979|554=5020|10=011|
8=FIX.4.4|9=96|35=A|34=1|49=FXCM|50=U100D1|52=20190531-11:33:25.182|56=MD_D103289979_client1|98=0|108=30|141=Y|10=128|
8=FIX.4.4|9=0000143|35=V|49=MD_D103289979_client1|56=FXCM|34=2|57=U100D1|52=20190531-11:33:25.314|262=nBroker|263=1|264=0|265=1|267=2|269=0|269=1|146=1|55=EUR/USD|10=239|
8=FIX.4.4|9=514|35=W|34=2|49=FXCM|50=U100D1|52=20190531-11:33:25.441|56=MD_D103289979_client1|55=EUR/USD|228=1|231=1|262=nBroker|460=4|9001=5|9002=0.0001|9005=100|9011=0|9020=2|9080=1|9090=0|9091=0|9092=0|9093=0|9094=50000000|9095=1|9096=O|268=4|269=0|270=1.11476|271=0|272=20190531|273=11:33:24.000|336=FXCM|625=U100D1|276=A|282=PSFX_DESK|299=FXCM-EURUSD-8477712|537=1|269=1|270=1.11488|271=0|272=20190531|273=11:33:24.000|336=FXCM|625=U100D1|276=A|282=PSFX_DESK|299=FXCM-EURUSD-8477712|537=1|269=7|270=1.12062|269=8|270=1.12032|10=004|
8=FIX.4.4|9=0000120|35=A|49=MD_D103289979_client1|56=FXCM|34=1|57=U100D1|52=20190531-11:34:36.946|98=0|108=30|141=Y|553=D103289979|554=5020|10=024|
8=FIX.4.4|9=96|35=A|34=1|49=FXCM|50=U100D1|52=20190531-11:34:38.078|56=MD_D103289979_client1|98=0|108=30|141=Y|10=137|
8=FIX.4.4|9=0000143|35=V|49=MD_D103289979_client1|56=FXCM|34=2|57=U100D1|52=20190531-11:34:38.238|262=nBroker|263=1|264=0|265=1|267=2|269=0|269=1|146=1|55=EUR/USD|10=249|
8=FIX.4.4|9=514|35=W|34=2|49=FXCM|50=U100D1|52=20190531-11:34:38.364|56=MD_D103289979_client1|55=EUR/USD|228=1|231=1|262=nBroker|460=4|9001=5|9002=0.0001|9005=100|9011=0|9020=2|9080=1|9090=0|9091=0|9092=0|9093=0|9094=50000000|9095=1|9096=O|268=4|269=0|270=1.11476|271=0|272=20190531|273=11:34:35.000|336=FXCM|625=U100D1|276=A|282=PSFX_DESK|299=FXCM-EURUSD-8480265|537=1|269=1|270=1.11487|271=0|272=20190531|273=11:34:35.000|336=FXCM|625=U100D1|276=A|282=PSFX_DESK|299=FXCM-EURUSD-8480265|537=1|269=7|270=1.12062|269=8|270=1.12032|10=012|
8=FIX.4.4|9=0000120|35=A|49=MD_D103289979_client1|56=FXCM|34=1|57=U100D1|52=20190531-11:34:40.339|98=0|108=30|141=Y|553=D103289979|554=5020|10=015|
8=FIX.4.4|9=0000120|35=A|49=MD_D103289979_client1|56=FXCM|34=1|57=U100D1|52=20190531-11:45:36.435|98=0|108=30|141=Y|553=D103289979|554=5020|10=019|
8=FIX.4.4|9=96|35=A|34=1|49=FXCM|50=U100D1|52=20190531-11:45:37.572|56=MD_D103289979_client1|98=0|108=30|141=Y|10=137|
8=FIX.4.4|9=0000143|35=V|49=MD_D103289979_client1|56=FXCM|34=2|57=U100D1|52=20190531-11:45:37.712|262=nBroker|263=1|264=0|265=1|267=2|269=0|269=1|146=1|55=EUR/USD|10=247|
8=FIX.4.4|9=514|35=W|34=2|49=FXCM|50=U100D1|52=20190531-11:45:37.848|56=MD_D103289979_client1|55=EUR/USD|228=1|231=1|262=nBroker|460=4|9001=5|9002=0.0001|9005=100|9011=0|9020=2|9080=1|9090=0|9091=0|9092=0|9093=0|9094=50000000|9095=1|9096=O|268=4|269=0|270=1.11433|271=0|272=20190531|273=11:45:37.000|336=FXCM|625=U100D1|276=A|282=PSFX_DESK|299=FXCM-EURUSD-8506687|537=1|269=1|270=1.11444|271=0|272=20190531|273=11:45:37.000|336=FXCM|625=U100D1|276=A|282=PSFX_DESK|299=FXCM-EURUSD-8506687|537=1|269=7|270=1.11428|269=8|270=1.11437|10=041|
8=FIX.4.4|9=0000120|35=A|49=MD_D103289979_client1|56=FXCM|34=1|57=U100D1|52=20190531-11:46:28.957|98=0|108=30|141=Y|553=D103289979|554=5020|10=030|
8=FIX.4.4|9=96|35=A|34=1|49=FXCM|50=U100D1|52=20190531-11:46:30.087|56=MD_D103289979_client1|98=0|108=30|141=Y|10=132|
8=FIX.4.4|9=0000143|35=V|49=MD_D103289979_client1|56=FXCM|34=2|57=U100D1|52=20190531-11:46:30.236|262=nBroker|263=1|264=0|265=1|267=2|269=0|269=1|146=1|55=EUR/USD|10=242|
8=FIX.4.4|9=514|35=W|34=2|49=FXCM|50=U100D1|52=20190531-11:46:30.363|56=MD_D103289979_client1|55=EUR/USD|228=1|231=1|262=nBroker|460=4|9001=5|9002=0.0001|9005=100|9011=0|9020=2|9080=1|9090=0|9091=0|9092=0|9093=0|9094=50000000|9095=1|9096=O|268=4|269=0|270=1.11439|271=0|272=20190531|273=11:46:29.000|336=FXCM|625=U100D1|276=A|282=PSFX_DESK|299=FXCM-EURUSD-8509594|537=1|269=1|270=1.11450|271=0|272=20190531|273=11:46:29.000|336=FXCM|625=U100D1|276=A|282=PSFX_DESK|299=FXCM-EURUSD-8509594|537=1|269=7|270=1.11434|269=8|270=1.11443|10=028|
