8=FIX.4.4|9=0000120|35=A|49=MD_D103289979_client1|56=FXCM|34=1|57=U100D1|52=20190601-05:29:32.603|98=0|108=30|141=Y|553=D103289979|554=5020|10=015|
8=FIX.4.4|9=0000120|35=A|49=MD_D103289979_client1|56=FXCM|34=1|57=U100D1|52=20190601-05:33:01.254|98=0|108=30|141=Y|553=D103289979|554=5020|10=008|
8=FIX.4.4|9=0000120|35=A|49=MD_D103289979_client1|56=FXCM|34=1|57=U100D1|52=20190601-05:44:42.045|98=0|108=30|141=Y|553=D103289979|554=5020|10=013|
8=FIX.4.4|9=0000120|35=A|49=MD_D103289979_client1|56=FXCM|34=1|57=U100D1|52=20190601-05:45:11.563|98=0|108=30|141=Y|553=D103289979|554=5020|10=015|
8=FIX.4.4|9=0000120|35=A|49=MD_D103289979_client1|56=FXCM|34=1|57=U100D1|52=20190601-05:45:56.714|98=0|108=30|141=Y|553=D103289979|554=5020|10=022|
8=FIX.4.4|9=0000120|35=A|49=MD_D103289979_client1|56=FXCM|34=1|57=U100D1|52=20190601-05:46:35.291|98=0|108=30|141=Y|553=D103289979|554=5020|10=020|
8=FIX.4.4|9=0000120|35=A|49=MD_D103289979_client1|56=FXCM|34=1|57=U100D1|52=20190601-05:54:08.951|98=0|108=30|141=Y|553=D103289979|554=5020|10=022|
8=FIX.4.4|9=96|35=A|34=1|49=FXCM|50=U100D1|52=20190601-05:54:10.071|56=MD_D103289979_client1|98=0|108=30|141=Y|10=123|
8=FIX.4.4|9=0000112|35=0|49=MD_D103289979_client1|56=FXCM|34=2|57=U100D1|52=20190601-05:54:44.611|112=Sat, 01 Jun 2019 05:54:44 GMT|10=202|
8=FIX.4.4|9=78|35=0|34=2|49=FXCM|50=U100D1|52=20190601-05:54:40.689|56=MD_D103289979_client1|10=055|
8=FIX.4.4|9=0000120|35=A|49=MD_D103289979_client1|56=FXCM|34=1|57=U100D1|52=20190601-06:32:58.574|98=0|108=30|141=Y|553=D103289979|554=5020|10=025|
8=FIX.4.4|9=96|35=A|34=1|49=FXCM|50=U100D1|52=20190601-06:32:59.710|56=MD_D103289979_client1|98=0|108=30|141=Y|10=133|
8=FIX.4.4|9=0000120|35=A|49=MD_D103289979_client1|56=FXCM|34=1|57=U100D1|52=20190601-06:35:55.600|98=0|108=30|141=Y|553=D103289979|554=5020|10=015|
8=FIX.4.4|9=96|35=A|34=1|49=FXCM|50=U100D1|52=20190601-06:35:56.722|56=MD_D103289979_client1|98=0|108=30|141=Y|10=136|
8=FIX.4.4|9=0000120|35=A|49=MD_D103289979_client1|56=FXCM|34=1|57=U100D1|52=20190601-06:39:13.564|98=0|108=30|141=Y|553=D103289979|554=5020|10=022|
8=FIX.4.4|9=96|35=A|34=1|49=FXCM|50=U100D1|52=20190601-06:39:14.685|56=MD_D103289979_client1|98=0|108=30|141=Y|10=142|
8=FIX.4.4|9=0000120|35=A|49=MD_D103289979_client1|56=FXCM|34=1|57=U100D1|52=20190601-06:47:39.368|98=0|108=30|141=Y|553=D103289979|554=5020|10=031|
8=FIX.4.4|9=96|35=A|34=1|49=FXCM|50=U100D1|52=20190601-06:47:40.490|56=MD_D103289979_client1|98=0|108=30|141=Y|10=134|
8=FIX.4.4|9=0000120|35=A|49=MD_D103289979_client1|56=FXCM|34=1|57=U100D1|52=20190601-06:56:04.006|98=0|108=30|141=Y|553=D103289979|554=5020|10=012|
8=FIX.4.4|9=0000120|35=A|49=MD_D103289979_client1|56=FXCM|34=1|57=U100D1|52=20190601-06:56:35.181|98=0|108=30|141=Y|553=D103289979|554=5020|10=020|
8=FIX.4.4|9=96|35=A|34=1|49=FXCM|50=U100D1|52=20190601-06:56:36.301|56=MD_D103289979_client1|98=0|108=30|141=Y|10=130|
8=FIX.4.4|9=0000518|35=V|49=MD_D103289979_client1|56=FXCM|34=2|57=U100D1|52=20190601-06:56:45.672|262=nBroker|263=1|264=0|265=1|267=2|269=0|269=1|146=35|55=AUD/CAD|55=AUD/CHF|55=AUD/JPY|55=AUD/NZD|55=AUD/USD|55=CAD/CHF|55=CAD/JPY|55=CHF/JPY|55=EUR/AUD|55=EUR/CAD|55=EUR/CHF|55=EUR/GBP|55=EUR/JPY|55=EUR/NZD|55=EUR/PLN|55=EUR/SEK|55=EUR/NOK|55=EUR/TRY|55=EUR/SGD|55=EUR/USD|55=GBP/AUD|55=GBP/CAD|55=GBP/CHF|55=GBP/JPY|55=GBP/USD|55=NZD/CAD|55=NZD/CHF|55=NZD/JPY|55=TRY/JPY|55=USD/CAD|55=USD/JPY|55=USD/NOK|55=USD/TRY|55=USD/ZAR|55=ZAR/JPY|10=069|
8=FIX.4.4|9=476|35=W|34=2|49=FXCM|50=U100D1|52=20190601-06:56:45.792|56=MD_D103289979_client1|55=EUR/USD|228=1|231=1|262=nBroker|460=4|9001=5|9002=0.0001|9005=100|9011=0|9020=1|9080=1|9090=0|9091=0|9092=0|9093=0|9094=50000000|9095=1|9096=O|268=4|269=0|270=1.11680|271=0|272=20190531|273=20:59:59.000|336=FXCM|625=U100D1|276=B|299=FXCM-EURUSD-10067487|269=1|270=1.11704|271=0|272=20190531|273=20:59:59.000|336=FXCM|625=U100D1|276=B|299=FXCM-EURUSD-10067487|269=7|270=1.11704|269=8|270=1.11680|10=056|
